S0180000555F5461736B6D616E6167656D656E742E73726563A8
S11300000C942E010C9457010C9457010C94570135
S11300100C9457010C9457010C9457010C945701FC
S11300200C9457010C9457010C9457010C945701EC
S11300300C9457010C9457010C94EF050C94570140
S11300400C9457010C9457010C9457010C945701CC
S11300500C9457010C9457010C9457010C945701BC
S11300600C9457010C9457010C9457010C945701AC
S11300700C9457010C9457010C9457010C9457019C
S11300800C9457010C9457010C9457010C9457018C
S11300900C9457010C9457010C9457010C9457017C
S11300A00C9457010C9457010C9457010C9457016C
S11300B00C9457010C9457010C9457010C9457015C
S11300C00C9457010C9457010C9457010C9457014C
S11300D00C9457010C9457010C9457010C9457013C
S11300E00C9457010C9457010C9457010C9457012C
S11300F00C9457010C9457010C9457010C9457011C
S11301000C9457010C9457010C9457010C9457010B
S11301100C9457010C9457010C9457010C945701FB
S11301200C9457010C9457010C9457010C945701EB
S11301300C9457010C9457010C9457010C945701DB
S11301400C9457010C9457010C9457010C945701CB
S11301500C9457010C9457010C9457010C945701BB
S11301600C9457010C9457010C9457010C945701AB
S11301700C9457010C9457010C9457010C9457019B
S11301800C9457010C9457010C9457010C9457018B
S11301900C9457010C9457010C9457010C9457017B
S11301A00C9457010C9457010C9457010C9457016B
S11301B00C94BF140C9457010C9457010C945701E0
S11301C00C9457010C9457010C9457010C9457014B
S11301D00C9457010C9457010C9457010C9457013B
S11301E00C9457010C9457010C9457010C9457012B
S11301F00C9457010C9457010C94570190119011D1
S113020090114B11CB11E211901190114B11CB11A4
S11302100C9432160C945D130C9499130C944412A0
S11302200C94D5030C947B130C94A8130C943809E8
S11302300C946C130C949F100C94E5120C94901174
S11302400C943F130C94CB110C944E130C94E211A8
S11302500C944B110C9445120C948A1311241FBE58
S1130260CFEFCDBFDFE3DEBF00E00CBFEBE0F5E393
S11302708AEA90E48193E030F907E0F310E2A0E029
S1130280B0E2E4E5F9E300E00BBF02C007900D9291
S1130290A03AB107D9F725E3A0EAB0E201C01D9264
S11302A0AB30B207E1F70E94D7130C94A81C0C944E
S11302B00000E0EAF6E080E1828380E2828380E469
S11302C0828380E8828308952091A8068091A620E5
S11302D09091A72024FD0AC080362AEE9207B8F434
S11302E001968093A6209093A72011C08B3091058E
S11302F038F0C39718F01092F03405C081E001C0C3
S113030082E08093F0341092A6201092A7202091CE
S1130310A8068091A4209091A52025FD0AC08036CE
S11303202AEE9207B8F401968093A4209093A52016
S113033011C08B30910538F0C39718F01092F13446
S113034005C081E001C082E08093F1341092A420C2
S11303501092A5202091A8068091A2209091A3201C
S113036026FD0AC080362AEE9207B8F401968093DF
S1130370A2209093A32011C08B30910538F0C3972D
S113038018F01092F23405C081E001C082E080933D
S1130390F2341092A2201092A3202091A8068091FA
S11303A0A0209091A12027FD0AC080362AEE920752
S11303B0B8F401968093A0209093A12008958B30E7
S11303C0910538F0C39718F01092F33405C081E01A
S11303D001C082E08093F3341092A0201092A120F7
S11303E00895813059F038F0823059F0833061F447
S11303F08091F33408958091F03408958091F1341C
S113040008958091F234089582E008950F93CF9374
S1130410DF931F92CDB7DEB72FB72983F8941BBEA5
S1130420FC0108ED04BF608389818FBF0F90DF91C9
S1130430CF910F910895611102C090E001C090E244
S1130440842B982B9093520008956F71862B809380
S113045055000895E0E5F0E09081282F209592233F
S11304609083908189230895682B81E490E00C9413
S113047006020F931F93CF93C82F00E410E0F801F6
S11304806081687F682B80E490E00E940602F80196
S113049080818C23CF911F910F910895FC0190814D
S11304A0907F692B60830895FC019181987F692B6B
S11304B061830895FC0196819C7F692B668308956E
S11304C0000088ED84BF81E08093790008950C9446
S11304D06002CF93DF9380E190E00E94E403EC019B
S11304E0009741F0FC011192119211921192CF01E7
S11304F00E940B04CE01DF91CF9108952F923F9279
S11305004F925F926F927F928F929F92AF92BF921F
S1130510CF92DF92EF92FF920F931F93CF93DF93CB
S1130520EC014A015B01622E702E0E94860B28802A
S113053039804A805B80D201C10188219921AA2196
S1130540BB21011105C0892B8A2B8B2B39F459C08F
S113055088169906AA06BB0609F053C0662071F0F6
S1130560D501C40180959095A095B09582219321E1
S1130570A421B52188839983AA83BB83C12CD12C60
S113058076010E94690CCD28CE28CF2809F459C0E1
S1130590811102C00E946F050E941F0F91FD2DC0A2
S11305A0F091A200FF93F87FF093A2006881798113
S11305B08A819B8175016401C622D722E822F9222F
S11305C0711005C0CD28CE28CF2831F413C08C1467
S11305D09D04AE04BF0471F4662061F0809490948D
S11305E0A094B09486229722A822B9228882998264
S11305F0AA82BB82FF91F093A2001B012C01552417
S113060020C0C114D104E104F10409F4BACF662076
S113061029F040E050E060E071E003C040E050E0C9
S1130620BA0171107460482959296A297B299701F4
S11306308601CE0104960E94E80D212C312C210163
S1130640A0CFC201B101DF91CF911F910F91FF9013
S1130650EF90DF90CF90BF90AF909F908F907F905E
S11306606F905F904F903F902F9008950F931F933A
S1130670F091A200FF93F87FF093A200FC010081A7
S11306801181228133814095509560957095402366
S11306905123622373234083518362837383FF91C5
S11306A0F093A200C901B8011F910F9108952F92F0
S11306B03F924F925F926F927F928F929F92AF92EE
S11306C0BF92CF92DF92EF92FF920F931F93CF933B
S11306D0DF93EC016A017B018C01095F1F4F0E94CB
S11306E0860BEB85FC8588819981AA81BB81C82A08
S11306F0D92AEA2AFB2AC882D982EA82FB82C12C3F
S1130700D12C7601488159816A817B81E017F107F8
S113071039F12480358080809180A280B380D50116
S1130720C401BB272C013D014422552266227722B5
S1130730B2FC05C045284628472831F40FC084156B
S11307409505A605B70551F4B0FE04C0C82AD92AF8
S1130750EA2AFB2A7260CF010E946C0EF101D2CF0B
S1130760C094D094E094F0944C215D216E217F21BB
S1130770488359836A837B830E94690C68817981E9
S11307808A819B81DF91CF911F910F91FF90EF9010
S1130790DF90CF90BF90AF909F908F907F906F909D
S11307A05F904F903F902F9008950C9457030F93B0
S11307B01F9389019A01AB01BC0185ED93E00E946E
S11307C0E6111F910F9108950F931F93CF93DF9319
S11307D08C010E94860BC091A820D091A920CE0143
S11307E0800F911F883823E1920750F4C817D90766
S11307F038F4C655DF4D8093A8209093A92002C0F9
S1130800C0E0D0E00E94690CCE01DF91CF911F912E
S11308100F9108950895FC010396818392834FEF0D
S11308205FEFBA014383548365837683878390871C
S11308308187928710820895FC0112861386089599
S1130840CF93DF939C01FB01DC011196CD91DC91E8
S11308501297C483D5838E819F81868397838E81EB
S11308609F81DC0114966D937C9315976E837F832F
S113087022873387F90180818F5F8083DF91CF9155
S11308800895EF92FF920F931F93CF93DF937C0110
S1130890FB0140815181628173814F3F8FEF580783
S11308A06807780721F4E701A985BA8512C0D70142
S11308B0139614968D919C911597EC0108811981DA
S11308C02A813B81401751076207730710F0DC014E
S11308D0F0CF14968D919C91159784839583EC01A8
S11308E0EE83FF83A683B7831496ED93FC93159749
S11308F0E286F386F70180818F5F8083DF91CF9159
S11309001F910F91FF90EF900895CF93DF93FC0117
S1130910A285B3858481958126813781EC012E835C
S11309203F83C681D7818C839D8311968D919C9141
S11309301297E817F90721F41196CD93DC931297D7
S1130940128613868C9181508C938C91DF91CF9178
S11309500895E0EAF0E082819281987F928308957D
S1130960CF92DF92EF92FF920F931F9331E1FC013C
S11309703083319722E220833197A3E3A0836B0174
S1130980319760833197D08231971082319761E338
S11309906083319760E86083319767E860833197BB
S11309A0108231971082319762E06083319763E05F
S11309B06083319764E06083319765E060833197A9
S11309C066E06083319767E06083319768E0608315
S11309D0319769E06083319760E1608331973083B8
S11309E0319732E13083319733E13083319734E109
S11309F03083319735E13083319736E13083319755
S1130A0037E13083319738E13083319739E13083EE
S1130A10319730E23083319731E23083319720834C
S1130A20319723E220838A013197408331971083E1
S1130A30319726E22083319727E22083319728E2F9
S1130A402083319729E22083319720E320838897FC
S1130A501F910F91FF90EF90DF90CF90089583EF57
S1130A6091E0809326089093270865E080E098E061
S1130A700E944E0261E080E098E00E945A02A09138
S1130A80A034B091A1340D900DBE0D900EBEEF9127
S1130A90DF91CF91BF91AF919F918F917F916F9192
S1130AA05F914F913F912F911F910F91FF90EF9084
S1130AB0DF90CF90BF90AF909F908F907F906F907A
S1130AC05F904F903F902F901F900F90FF91F09365
S1130AD0A200FF91FFBFFF91089581E00895FF9365
S1130AE0FFB7FF93F091A200FF93F87FF093A20069
S1130AF00F921F9211242F923F924F925F926F9206
S1130B007F928F929F92AF92BF92CF92DF92EF9299
S1130B10FF920F931F932F933F934F935F936F9382
S1130B207F938F939F93AF93BF93CF93DF93EF9371
S1130B30A091A034B091A1340DB60D920EB60D92D1
S1130B400E94F90CA091A034B091A1340D900DBE77
S1130B500D900EBEEF91DF91CF91BF91AF919F9118
S1130B608F917F916F915F914F913F912F911F9141
S1130B700F91FF90EF90DF90CF90BF90AF909F9038
S1130B808F907F906F905F904F903F902F901F9029
S1130B900F90FF91F093A200FF91FFBFFF91089582
S1130BA0CF939091F434892B8093F4349091A000E6
S1130BB0913041F09091A000923021F09091A000EA
S1130BC0943059F4882349F00E94A904C82F109244
S1130BD0F4340E94F90CC093A200CF910895FF93BE
S1130BE0FFB7FF93F091A200FF93F87FF093A20068
S1130BF00F921F9211242F923F924F925F926F9205
S1130C007F928F929F92AF92BF92CF92DF92EF9298
S1130C10FF920F931F932F933F934F935F936F9381
S1130C207F938F939F93AF93BF93CF93DF93EF9370
S1130C30A091A034B091A1340DB60D920EB60D92D0
S1130C400E94A904C82F0E949E0BC093A20081E0B9
S1130C500E94D005A091A034B091A1340D900DBE96
S1130C600D900EBEEF91DF91CF91BF91AF919F9107
S1130C708F917F916F915F914F913F912F911F9130
S1130C800F91FF90EF90DF90CF90BF90AF909F9027
S1130C908F907F906F905F904F903F902F901F9018
S1130CA00F90FF91F093A200FF91FFBFFF91189561
S1130CB0F091A200FF93F87FF093A200FC01968DBF
S1130CC0FF91F093A20081E0911180E00895DC018E
S1130CD0F091A200FF93F87FF093A2005E969C919E
S1130CE05E97FF91F093A20081E05F962C91291307
S1130CF080E008950F931F93CF93DF93EC01042FAB
S1130D001E8D48A14423B1F150E0011115C08C811E
S1130D109D810E94631C28A18C819D81820F911D5D
S1130D208C839D832A813B818217930718F18881E4
S1130D3099818C839D831EC08E819F810E94631C38
S1130D4088A190E09195819591092E813F81280F8A
S1130D50391F2E833F83488159812417350730F486
S1130D602A813B81820F931F8E839F83023011F46B
S1130D70111111501F5F1E8F80E0DF91CF911F91E1
S1130D800F910895FC01CB0140A14423A1F050E050
S1130D9026813781240F351F26833783628173812F
S1130DA02617370720F02081318126833783668117
S1130DB077810C94631C0895EF92FF921F93CF9355
S1130DC0DF93EC01F091A200FF93F87FF093A2006F
S1130DD01AA17C0183E1E80EF11C11165CF48B89E5
S1130DE0882341F0C7010E942C0E81110E940D0F2F
S1130DF01150F3CF8FEF8AA3FF91F093A200F091EB
S1130E00A200FF93F87FF093A20019A17E0188E06D
S1130E10E80EF11C11165CF48885882341F0C701A3
S1130E200E942C0E81110E940D0F1150F3CF8FEFF1
S1130E3089A3FF91F093A200DF91CF911F91FF90BE
S1130E40EF900895CF93DF93EC01F091A200FF930C
S1130E50F87FF093A200288139819F8D48A1949F47
S1130E60C0011124F901E80FF91FEA83FB831E8EE8
S1130E702C833D83841B9109820F931F8E839F8350
S1130E808FEF89A38AA361110CC08885882389F018
S1130E90CE0108960E942C0E882359F00E946F05FB
S1130EA008C0CE0108960E940B04CE0143960E940E
S1130EB00B04FF91F093A20081E0DF91CF9108959C
S1130EC0FF920F931F93CF93DF93082F162FF42EC7
S1130ED0662321F0869FC001112402C080E090E0C7
S1130EE085960E94E403EC01009779F0111103C088
S1130EF08883998303C08596888399830F8F18A369
S1130F0061E0CE010E942207FCA2CE01DF91CF91C5
S1130F101F910F91FF900895AF92BF92CF92DF92ED
S1130F20EF92FF920F93CF93DF93CDB7DEB729975C
S1130F30CDBFDEBF7C016B012E833F834887598779
S1130F4080E0570198E0A90EB11CF091A200FF9334
S1130F50F87FF093A200F701268D978D291710F0E2
S1130F600230A9F4402FB601C7010E947A06F701A6
S1130F709389992321F0C70143960E942C0E811175
S1130F800E946F05FF91F093A20081E057C04E814B
S1130F905F8168857985452B462B472B21F4FF918A
S1130FA0F093A2004AC0811104C0CE0101960E94B0
S1130FB0A00EFF91F093A2000E94860BF091A20074
S1130FC0FF93F87FF093A200F70181A18F3F09F40A
S1130FD011A2F70182A18F3F09F412A2FF91F093AD
S1130FE0A200BE016A5F7F4FCE0101960E94B10E3E
S1130FF081111EC0C7010E946706882399F04E81A3
S11310005F8168857985C5010E94D10DC7010E9461
S1131010DC060E94690C882311F081E096CF0E94BF
S11310206F05FBCFC7010E94DC060E94690CF5CF57
S1131030C7010E94DC060E94690C80E02996CDBF9E
S1131040DEBFDF91CF910F91FF90EF90DF90CF90B3
S1131050BF90AF900895AF92BF92DF92EF92FF924C
S11310600F931F93CF93DF93EC015B017A01022F5F
S11310700E94A904D82E9E8D8F8D981710F00230EF
S1131080E1F41AA1402FB501CE010E947A061F3F58
S113109081F48B89882379F0CE0143960E942C0E2B
S11310A0882349F0E114F10431F081E0F7018083F1
S11310B005C01F5F1AA381E001C080E0D092A200A6
S11310C0DF91CF911F910F91FF90EF90DF90BF9030
S11310D0AF900895AF92BF92CF92DF92FF920F9399
S11310E01F93CF93DF93CDB7DEB72997CDBFDEBF74
S11310F08C016B012E833F834887598780E0580118
S113110093E1A90EB11CF091A200FF93F87FF09334
S1131110A200F801F68CFF20B1F0B601C8010E94CC
S1131120C206FA94F801F68E8085882339F0C80146
S113113008960E942C0E81110E946F05FF91F09376
S1131140A20081E05CC04E815F8168857985452B72
S1131150462B472B21F4FF91F093A2004FC081113D
S113116004C0CE0101960E94A00EFF91F093A2004C
S11311700E94860BF091A200FF93F87FF093A200E7
S1131180F80181A18F3F09F411A2F80182A18F3FD8
S113119009F412A2FF91F093A200BE016A5F7F4F8F
S11311A0CE0101960E94B10E81111EC0C8010E9499
S11311B05806882399F04E815F8168857985C50139
S11311C00E94D10DC8010E94DC060E94690C88238C
S11311D011F081E098CF0E946F05FBCFC8010E94F7
S11311E0DC060E94690CF5CFC8010E94DC060E944F
S11311F0690CC8010E945806882359F380E0299697
S1131200CDBFDEBFDF91CF911F910F91FF90DF9093
S1131210CF90BF90AF900895F091A200FF93F87F14
S1131220F093A200FC01868DFF91F093A200089533
S1131230CF93DF93EC01F091A200FF93F87FF0933A
S1131240A20089A18F3F09F419A28AA18F3F09F452
S11312501AA2FF91F093A2008E8D811104C0CE01D9
S113126043960E940C0ECE01DF91CF910C94DC06C4
S113127080917434823010F00E946F050E94B7137D
S1131280F7CFE0915C34F0915D348081811104C02A
S11312908FEF9FEFDC010EC0E0915C34F0915D3480
S11312A00780F085E02D0084F185E02D8281938113
S11312B0A481B5818093353490933634A093373428
S11312C0B093383408958F929F92AF92BF92CF9289
S11312D0DF92EF92FF92CF936B017C01C42F809039
S11312E03F3490904034A0904134B0904234809187
S11312F0A0349091A13402960E9485048FEFC81601
S1131300D806E806F806A9F4CC2399F06091A03435
S11313107091A1346E5F7F4F84E494E3CF91FF908A
S1131320EF90DF90CF90BF90AF909F908F900C94F0
S11313302004C80CD91CEA1CFB1CE091A034F091D9
S1131340A134C282D382E482F5826091A034709188
S1131350A134C814D904EA04FB0488F480915A34F3
S113136090915B346E5F7F4FCF91FF90EF90DF9051
S1131370CF90BF90AF909F908F900C944104809138
S11313805C3490915D346E5F7F4F0E944104809184
S1131390353490913634A0913734B0913834C8162E
S11313A0D906EA06FB0640F4C0923534D0923634AE
S11313B0E0923734F0923834CF91FF90EF90DF9081
S11313C0CF90BF90AF909F908F9008955F926F924F
S11313D07F928F929F92AF92BF92CF92DF92EF92C1
S11313E0FF920F931F93CF93DF934C01162F572E29
S11313F0EA015901CA010E94E4036C01892B09F432
S1131400ECC084E390E00E94E4033C010097C9F03F
S1131410DC015B96CD92DC925C97AE0165EA70E0EC
S1131420C6010E946C1C2197F301838D948DC80F13
S1131430D91FB301635E7F4FE12FF52DCF01409695
S113144007C0C6010E940A04C8C0E817F90749F09A
S11314509F014191DB014D93BD01D9012C912111D3
S1131460F4CFF30114A6043008F003E0D3015A9634
S11314700C936301B2E0CB0ED11CC6010E941C0484
S1131480C3010E960E941C04F3016286738684E0F5
S113149090E0A0E0B0E0801B9109A109B109868722
S11314A09787A08BB18B668A778A17A610AA11AA90
S11314B012AA13AAA501B401CE010E94B004F3013B
S11314C080839183E114F10419F0D7016D927C9229
S11314D0F091A200FF93F87FF093A200809143342F
S11314E08F5F809343348091A0349091A134892BF1
S11314F0A9F56092A0347092A13480914334813074
S1131500F1F584E794E30E940B048FE794E30E94CF
S11315100B048AE894E30E940B0485E994E30E9497
S11315200B0489E694E30E940B048EE594E30E9485
S11315300B048FE494E30E940B0484E494E30E947C
S11315400B0489E694E380935C3490935D348EE5D8
S113155094E380935A3490935B3411C080913D346A
S113156081110DC0E091A034F091A134928DF3016A
S1131570828D891720F06092A0347092A1348091FA
S113158039348F5F80933934D3019D968C939D9722
S11315905A968C9190913E34981710F480933E346F
S11315A0BBE08B9FC0011124B6018C589B4C0E9458
S11315B02004FF91F093A20080913D34882359F0D8
S11315C0E091A034F091A134928DF301828D9817AB
S11315D010F40E946F0581E001C08FEFDF91CF917D
S11315E01F910F91FF90EF90DF90CF90BF90AF903D
S11315F09F908F907F906F905F9008950F931F93AB
S1131600CF93DF93009709F441C02091A034309127
S1131610A1348217930709F439C0F091A200FF9313
S1131620F87FF093A200FC012485358524543443CB
S113163051F5FC01208D318DF4E32F343F0719F16E
S1131640232B09F5EC018C010E5F1F4FC8010E948A
S113165085048A8D90913E34981710F480933E341B
S11316602BE0829FC0011124B8018C589B4C0E942E
S11316702004E091A034F091A1349A8D828D9817C2
S113168010F00E946F05FF91F093A200DF91CF91BB
S11316901F910F910895EF92FF920F9383E3E82E29
S11316A084E3F82E00E020E030E048EC50E060E015
S11316B070E288E399E00E94E609813019F50E94FE
S11316C0C60F8130F9F49091A200987F9093A20004
S11316D04FEF5FEFBA014093353450933634609343
S11316E037347093383480933D3410923F341092E1
S11316F0403410924134109242340F91FF90EF9095
S11317000C942F050F91FF90EF900895809132343F
S11317108F5F809332340895F091A200FF93F87F95
S1131720F093A20060913F34709140348091413431
S113173090914234FF91F093A2000895AF92BF922A
S1131740CF92DF92EF92FF920F931F93CF93DF9389
S1131750809132348111A7C0C0903F34D09040347E
S1131760E0904134F09042348FEFC81AD80AE80A66
S1131770F80AC0923F34D0924034E0924134F0925F
S11317804234C114D104E104F104B9F480915C340D
S113179090915D3420915A3430915B3420935C34C1
S11317A030935D3480935A3490935B3480913A340F
S11317B08F5F80933A340E9441098091353490912F
S11317C03634A0913734B0913834C0E0C816D90605
S11317D0EA06FB0608F457C0DBE0E0915C34F091C4
S11317E05D348081811104C08FEF9FEFDC0113C051
S11317F0E0915C34F0915D340780F085E02D008544
S11318001185F80182819381A481B581C816D90616
S1131810EA06FB0648F48093353490933634A0935B
S11318203734B09338342FC05801F2E0AF0EB11CF6
S1131830C5010E948504D80158968D919C915997B1
S1131840892B21F0C8010E960E948504F801828D2F
S113185090913E34981710F480933E34D89FC00181
S11318601124B5018C589B4C0E942004E091A034B3
S1131870F091A134D8015A969C91828D981708F45E
S1131880ACCFC1E0AACFE091A034F091A134E28DB5
S1131890BBE0EB9FF0011124EC58FB4C80818230BB
S11318A040F0C1E006C080913C348F5F80933C34AB
S11318B0C0E080913B348111C1E08C2FDF91CF9146
S11318C01F910F91FF90EF90DF90CF90BF90AF905A
S11318D00895EF92FF920F931F93CF93DF93F091AC
S11318E0A200FF93F87FF093A200809132348150DC
S11318F08093323480913234882311F080E052C0D6
S1131900809143348823D1F3C0E0D0E08BE0F82EFB
S1131910EE24E39480914F34882351F1E0915634BE
S1131920F0915734C085D185CE010E960E9485046E
S11319308E010E5F1F4FC8010E9485048A8D90910D
S11319403E34981710F480933E34F89EC00111245D
S1131950B8018C589B4C0E942004E091A034F09173
S1131960A1349A8D828D9817A8F2E0923B34D2CF9D
S1131970CD2B11F00E944109C0913C34CC2351F08D
S1131980D1E00E949E0B8111D0933B34C150C9F722
S113199010923C3480913B34882309F4AFCF0E94E9
S11319A06F0581E0FF91F093A200DF91CF911F9129
S11319B00F91FF90EF900895CF92DF92EF92FF92F4
S11319C06B017C01672B682B692B19F40E946F054E
S11319D00BC00E94860B40E0C701B6010E94630958
S11319E00E94690C882391F3FF90EF90DF90CF90D1
S11319F0089580913234882321F081E080933B3430
S1131A00089510923B34E091A034F091A134038CFA
S1131A10F48DE02D80819181A281B381853A954A2C
S1131A20A54AB54AD9F484819581A681B781853ABE
S1131A30954AA54AB54A91F480859185A285B385D6
S1131A40853A954AA54AB54A49F484859585A6857B
S1131A50B785853A954AA54AB54A61F06091A034A4
S1131A607091A1348091A0349091A134635E7F4F32
S1131A700E94670280913E346BE0482F50E0649FDF
S1131A809001659F300D1124F901EC58FB4C9081B5
S1131A90911102C08150F1CFA181B28114960D90B1
S1131AA0BC91A02DA183B28329583B4CA217B30744
S1131AB031F414962D913C911597218332839BE048
S1131AC0949FF001959FF00D1124EC58FB4C01807C
S1131AD0F281E02D208531852093A0343093A13408
S1131AE080933E3408950F931F93CF93DF93EC01BB
S1131AF0F091A200FF93F87FF093A200892B21F4C8
S1131B00C091A034D091A1348E010E5F1F4FC80143
S1131B100E948504888D998D892B21F0CE010E9623
S1131B200E948504B80184E494E30E9420048BA9F4
S1131B30813009F41BAAFF91F093A20080913D34F7
S1131B40882359F0F091A200FF93F87FF093A2004C
S1131B500E944109FF91F093A2008091A0349091DA
S1131B60A134C817D907C1F480913D34882319F0F2
S1131B700E946F0511C090914434809143349813AE
S1131B8005C01092A0341092A13406C0DF91CF9109
S1131B901F910F910C94F90CDF91CF911F910F912C
S1131BA00895CF92DF92EF92FF926A017B016091D8
S1131BB0A0347091A134625F7F4F0E94410441E0E0
S1131BC0C701B601FF90EF90DF90CF900C946309AA
S1131BD0CF92DF92EF92FF920F931F9368017901E6
S1131BE0E091A034F091A134706846875787608BE8
S1131BF0718B6091A0347091A134625F7F4F0E9419
S1131C00200441E0C701B6011F910F91FF90EF90AE
S1131C10DF90CF900C946309CF92DF92EF92FF9202
S1131C20CF936A017B01C22F6091A0347091A134DB
S1131C30625F7F4F0E942004CC2321F0CC24CA94FD
S1131C40DC2C76014C2FC701B601CF91FF90EF90A9
S1131C50DF90CF900C9463090F931F93CF93DF937E
S1131C60DC011796ED91FC911897C085D1858E0102
S1131C70025F1F4FC8010E94850480913234811194
S1131C8014C00C501109C8010E9485048A8D9091DA
S1131C903E34981710F480933E34BBE08B9FC00110
S1131CA01124B8018C589B4C03C0B8018FE494E311
S1131CB00E942004E091A034F091A1349A8D828D89
S1131CC0891720F481E080933B3401C080E0DF91E8
S1131CD0CF911F910F9108950F931F93CF93DF938B
S1131CE07068FC014083518362837383C085D1850E
S1131CF00E9485048E010E5F1F4FC8010E94850457
S1131D008A8D90913E34981710F480933E34FBE012
S1131D108F9FC0011124B8018C589B4C0E94200451
S1131D20E091A034F091A1349A8D828D891718F432
S1131D3081E080933B34DF91CF911F910F910895FF
S1131D4020913A34FC01208340913F345091403437
S1131D50609141347091423441835283638374832C
S1131D600895CF92DF92EF92FF920F931F93CF9338
S1131D70DF93DB01F091A200FF93F87FF093A200C0
S1131D8000913F34109140342091413430914234D9
S1131D904D915D916D917C9113974F3FCFEF5C070F
S1131DA06C077C0759F1FC01C180D280E380F48088
S1131DB0E0913A34EC01F881FE1729F00C151D0569
S1131DC02E053F05E8F40C191D092E093F090417D7
S1131DD015072607370760F4FD01401B510B620B02
S1131DE0730B40835183628373830E94A00E06C0E9
S1131DF01D921D921D921C92139702C080E001C097
S1131E0081E0FF91F093A200DF91CF911F910F9198
S1131E10FF90EF90DF90CF90089581E080933B3462
S1131E20089580913D34882331F0809132348823A1
S1131E3021F080E0089581E0089582E008958F9272
S1131E409F92AF92BF92CF92DF92EF92FF920F9345
S1131E501F93E091A034F091A13466857785808941
S1131E609189E091A034F091A134A091A034B09173
S1131E70A1345A962C9134E0C32ED12CE12CF12CB0
S1131E8046015701821A9108A108B10886869786EF
S1131E90A08AB18A1F910F91FF90EF90DF90CF90AD
S1131EA0BF90AF909F908F900895F091A200FF9300
S1131EB0F87FF093A2008091A8349091A934892BE3
S1131EC0E9F489EB94E30E940B048EEA94E30E9404
S1131ED00B0489EB94E38093AC349093AD348EEA95
S1131EE094E38093AA349093AB3440E069E082E0B9
S1131EF00E9460078093A8349093A934FF91F093D3
S1131F00A2000895CF92DF92EF92FF920F931F9356
S1131F10FC01428353836483758382879387041708
S1131F20150726073707A8F00C191D092E093F09C4
S1131F3086859785A089B189081719072A073B0761
S1131F40E8F4BF016E5F7F4F8091AA349091AB3467
S1131F5011C00C151D052E053F0528F44C155D0513
S1131F606E057F0558F4BF016E5F7F4F8091AC34DE
S1131F709091AD340E94410480E001C081E01F9142
S1131F800F91FF90EF90DF90CF900895EF92FF9222
S1131F900F930E94550F8091A8349091A934892BF6
S1131FA081F086EAE82E84E3F82E03E020E030E0B6
S1131FB048EC50E065E070E28FE990E10E94E609A8
S1131FC001C080E00F91FF90EF9008958F929F924F
S1131FD0AF92BF92CF92DF92EF92FF920F931F9333
S1131FE0CF93DF93CDB7DEB72997CDBFDEBFA091E6
S1131FF0A834B091A934109741F169832A833B83B3
S11320004C835D838E839F836630B4F40E94110FEA
S1132010E091A834F091A93400E0823019F4A701CA
S1132020960103C020E030E0A901BE016F5F7F4F3D
S1132030CF010E948C070AC020E0A801BE016F5F97
S11320407F4FCD010E942B0801C080E02996CDBFAF
S1132050DEBFDF91CF911F910F91FF90EF90DF9042
S1132060CF90BF90AF909F908F9008958F929F9242
S1132070AF92BF92CF92DF92EF92FF920F931F9392
S1132080CF93DF93E091AC34F091AD348081882319
S1132090E9F10780F085E02D80809180A280B380F3
S11320A0C085D1858E010E5F1F4FC8010E94850433
S11320B0ED89FE89CE0119958A89813019F78E85BB
S11320C09F85A889B989880D991DAA1DBB1D8816ED
S11320D09906AA06BB0670F48A839B83AC83BD83EE
S11320E0CA87DB87B8018091AC349091AD340E94EB
S11320F04104C8CFC12CD12C760100E010E0A50129
S1132100940160E0CE010E94E60FBCCF8091AA3416
S11321109091AB348093AC349093AD34E093AA3473
S1132120F093AB34DF91CF911F910F91FF90EF901B
S1132130DF90CF90BF90AF909F908F900895CF93F2
S1132140DF93CDB7DEB72997CDBFDEBFE091AC34C6
S1132150F091AD34F080FF2041F00780F085E02D50
S113216080809180A280B38003C0812C912C540183
S11321700E94860B0E948C0B1B012C018091A234BF
S11321809091A334A091A434B091A53428163906B3
S11321904A065B0620F40E94361081E001C080E00C
S11321A02092A2343092A3344092A4345092A534A5
S11321B081115FC0FF2009F441C0281439044A0486
S11321C05B0408F442C00E94690CE091AC34F091C5
S11321D0AD340780F085E02D60847184C3010296DC
S11321E00E948504D30152968C9152978130F1F468
S11321F01E964D915D916D917C915197480D591D9D
S11322006A1D7B1D7501640192018101C3010E9455
S1132210820F882359F0C12CD12C760100E010E004
S1132220A501940160E0C3010E94E60FD301559615
S1132230ED91FC915697C30119952DC0E091AA34F4
S1132240F091AB34808121E0811120E0B501A4013B
S113225042195309640975098091A8349091A934ED
S11322600E9418090E94690C811115C00E946F0513
S113227012C00E94690C0FC0898187FF09C04E817A
S11322805F8168857985EA81FB818C819D811995BF
S1132290898187FF0FC020E030E0A901BE016F5F94
S11322A07F4F8091A8349091A9340E946A088111CB
S11322B0E3CF4CCFAE80BF80F50184859585892B13
S11322C021F0C50102960E9485040E948C0B2B010B
S11322D03C018091A2349091A334A091A434B09194
S11322E0A534481659066A067B0610F40E94361077
S11322F04092A2345092A3346092A4347092A534D4
S11323008981082E000C990BAA0BBB0B8A3091050E
S113231010F6FC018827E250FF4F8F4F0C945B1C92
S1132320CA80DB80EC80FD80D5011E964D915D91C5
S11323306D917C9151974C0D5D1D6E1D7F1D930118
S11323408201C5010E94820F882309F4A4CFD5011C
S11323505596ED91FC915697C5011995F501828921
S1132360813009F098CF4A815B816C817D818685BB
S11323709785A089B1899A01AB01280F391F4A1F9B
S11323805B1FC12CD12C760100E010E060E0C50198
S11323900E94E60F80CF4A815B816C817D81D501EB
S11323A01E964D935D936D937C935197440D551DEB
S11323B0661D771D7301620193018201C5010E94AC
S11323C0820F69CFC5010E940A0465CF0F931F9342
S11323D0CF93DF93CDB7DEB72997CDBFDEBFEEEF46
S11323E0E9838A839B836C837D832E833F83488721
S11323F0598720E0A801BE016F5F7F4F8091A83408
S11324009091A9340E942B082996CDBFDEBFDF919D
S1132410CF911F910F910895809150008160809316
S113242050008091510080FFFCCF80E00E9439026F
S11324308EE10E942A0260E080E00E94340243E0C0
S113244060E080E40E941B028091500088608093C9
S113245050008091510083FFFCCF64E080EC0E9427
S113246025028091500080618093500060E080E0FC
S11324700E9434028091510084FFFCCF84E00E94CA
S1132480390287E00C942A02FFCF0E9459010E946E
S1132490640180E00E94F101813069F48091F93493
S11324A09091FA340E94730D8091FD349091FE3422
S11324B00E94730D11C080E00E94F10181110CC0D3
S11324C08091F9349091FA340E94FE0A8091FD348F
S11324D09091FE340E94FE0A81E00E94F101813055
S11324E029F58091F5349091F6340E94730D809112
S11324F0FF34909100350E94730D8091FB349091CC
S1132500FC340E94730D80910535909106350E942C
S1132510730D80910135909102350E94730D809165
S11325200335909104350E94730D29C081E00E9407
S1132530F101811124C08091F5349091F6340E9408
S1132540FE0A8091FF34909100350E94FE0A80912A
S1132550FB349091FC340E94FE0A809105359091E1
S113256006350E94FE0A80910135909102350E9441
S1132570FE0A80910335909104350E94FE0A82E0A0
S11325800E94F101813019F082E00E94F10183E0A0
S11325900E94F101813039F48091F7349091F8343C
S11325A00E94FE0A0BC083E00E94F101811106C063
S11325B08091F7349091F8340E94730D6AE070E0D2
S11325C080E090E00E94DC0C62CF64E670E080E082
S11325D090E00E94DC0C8DE0C82E80E2D82E9DE1B4
S11325E0E92E90E2F92E992493940AE210E222E073
S11325F0A22EC9E3D0E233E0B32E0E940917DF9282
S1132600CF921F921F921F921F920E941317FF9244
S1132610EF921F921F921F929F920E9413171F9373
S11326200F931F921F921F92AF920E9413178091D3
S1132630C7348F938091C6348F938091C5348F9320
S11326408091C4348F93DF93CF931F921F921F9274
S1132650BF920E9413171092C4341092C534109282
S1132660C6341092C73468EE73E080E090E00E94B4
S1132670DC0C8DB79EB74C968DBF9EBFBECF81E05C
S11326808093A1068093A506C1E0C093A70668ECD9
S113269070E080E090E00E94DC0CF7CF82E0809351
S11326A0A1068093A506C2E0C093A7066EEB70E076
S11326B080E090E00E94DC0CF7CF84E08093A106D8
S11326C08093A506C4E0C093A70664EB70E080E0A5
S11326D090E00E94DC0CF7CF88E08093A106809301
S11326E0A506C8E0C093A7066AEA70E080E090E01F
S11326F00E94DC0CF7CF81E08093810680938506ED
S1132700C1E0C093870660EA70E080E090E00E9438
S1132710DC0CF7CF82E08093810680938506C2E0CB
S1132720C093870666E970E080E090E00E94DC0CCC
S1132730F7CF84E08093810680938506C4E0C0933C
S113274087066CE870E080E090E00E94DC0CF7CF34
S113275088E08093810680938506C8E0C09387064D
S113276062E870E080E090E00E94DC0CF7CFF0912A
S1132770A200FF93F87FF093A20020E030E040E84D
S11327805FE36091C4347091C5348091C6349091F4
S1132790C7340E941E1A6093C4347093C534809366
S11327A0C6349093C734FF91F093A2000895EF923A
S11327B0FF920F93CF930E94F819C82F0E940C1216
S11327C00E94AA15E12CF12C03E020E030E048EC53
S11327D050E062E470E285E492E10E94E60989EF48
S11327E0E82E84E3F82E01E020E030E048EC50E0ED
S11327F06CE470E28FE393E10E94E6099DEFE92E19
S113280094E3F92E20E030E048EC50E061E570E21A
S11328108EE493E10E94E60925EFE22E24E3F22EF2
S113282020E030E048EC50E066E570E28DE593E1AD
S11328300E94E6093FEFE32E34E3F32E20E030E07C
S113284048EC50E06BE570E28CE693E10E94E60907
S11328504BEFE42E44E3F42E20E030E048EC50E06B
S113286060E670E28BE793E10E94E60955E0E52E0D
S113287055E3F52E20E030E048EC50E065E670E2E8
S11328808AE893E10E94E60961E0E62E65E3F62E0C
S113289020E030E048EC50E06AE670E289E993E138
S11328A00E94E60973E0E72E75E3F72E20E030E09E
S11328B048EC50E06FE670E288EA93E10E94E60992
S11328C0E7EFEE2EE4E3FE2E02E020E030E048ECF9
S11328D050E064E770E284E492E10E94E609E12CAE
S11328E0F12C03E020E030E048EC50E06DE770E2CA
S11328F085EE92E10E94E6098091F7349091F834D4
S11329000E94730D0E9409178DE090E29F938F93AC
S11329101F921F921F921F920E9413178DE190E243
S11329209F938F931F921F921F9281E08F930E9417
S113293013178AE290E29F938F931F921F921F9224
S113294082E08F930E9413171F92CF9385E890E241
S11329509F938F931F921F921F9283E08F930E94E5
S113296013170E944B0B8DB79EB74A968DBF9EBF1F
S113297080E090E0CF910F91FF90EF9008951F9227
S11329800F920FB60F9211240BB60F922F933F9311
S11329904F935F936F937F938F939F93AF93BF9363
S11329A0EF93FF93CF93DF931F92CDB7DEB71982D6
S11329B09E012F5F3F4F41E050E060E070E0809166
S11329C0093590910A350E94D70360E080E09BE0CE
S11329D00E944E021092060B0F90DF91CF91FF914F
S11329E0EF91BF91AF919F918F917F916F915F9183
S11329F04F913F912F910F900BBE0F900FBE0F90F0
S1132A001F901895CF92DF92EF92FF920F936B0174
S1132A107C0182E0C816D104E104F10428F432E018
S1132A20C32ED12CE12CF12C81E08093060B109263
S1132A30200B1092210B60E080E09BE00E94540286
S1132A408EEFC8168FEFD806E104F10450F4F69423
S1132A50E794D794C794C092260BD092270B65E0D5
S1132A6014C080E4C81682E4D8068FE0E806F104B6
S1132A7080F495E0F694E794D794C7949A95D1F7A7
S1132A80C092260BD092270B67E080E09BE00E9467
S1132A904E0284EFC82EDD24D394E12CF12C00E007
S1132AA021E041E050E060E070E0809109359091D0
S1132AB00A350E947E020F91FF90EF90DF90CF9035
S1132AC008958295807FE0E0F6E09481282F2F60BE
S1132AD0922394839481892B848308951F93CF93A5
S1132AE0DF93C0E6D6E014E01D8361E070E080E08F
S1132AF090E00E9402151E83DF91CF911F910895EB
S1132B00CF93C82F82958F700E946115E0E6F6E09E
S1132B1081E0868382E086830E946E158C2F8F70FD
S1132B200E946115CF910C946E15CF93C82F829596
S1132B308F700E946115E0E6F6E081E0858382E013
S1132B4086830E946E158C2F8F700E946115CF9121
S1132B500C946E15EF92FF920F93E0E0F6E080E1A3
S1132B60818380E2818380E4818380E88183A0E69D
S1132B70B6E081E011968C93119782E011968C93C4
S1132B80119784E011968C93119784818F708483BC
S1132B9014968C911497887F14968C9340E066E188
S1132BA085E00E94600780930735909308350E9462
S1132BB069028093093590930A35E12CF12C03E0E6
S1132BC020E030E04EE551E065E970E282E396E111
S1132BD00E94E6090F91FF90EF9008959C01862FC3
S1132BE02130310569F024F4232B79F480580BC08B
S1132BF02230310539F02330310539F48C5203C0C9
S1132C00805401C08C560E94801567E270E080E019
S1132C1090E00C9402150E9495156BE270E080E040
S1132C2090E00C9402150F931F93CF93DF93EC0164
S1132C308C010C5E1F4F8991882329F00E940B168A
S1132C40C017D107C1F7DF91CF911F910F9108955C
S1132C50CF93DF93EA010E94EE15CE01DF91CF916D
S1132C600C941316CF93DF93CDB7DEB7C656D109B4
S1132C70CDBFDEBF8E010F5A1F4F9E012F5F3F4F06
S1132C8040E280E090E0F901E80FF91F40830196EB
S1132C9084319105C1F72C5E3F4F2017310789F726
S1132CA060E47CE980E090E00E94021583E00E94E9
S1132CB0611568E873E180E090E00E9402150E94CB
S1132CC06E1560EA70E080E090E00E9402150E94B8
S1132CD06E1560EA70E080E090E00E9402150E94A8
S1132CE06E1560EA70E080E090E00E94021582E0D8
S1132CF00E9461150E946E1588E20E94801580E191
S1132D000E9480158CE00E94801586E00E94801548
S1132D1060E2B62E68EC70E080E090E00E94DC0C8B
S1132D2040E050E0BA018091093590910A350E9443
S1132D303603672B682B692BE9F142E050E060E031
S1132D4070E08091093590910A350E9436039E0106
S1132D502F5F3F4F80E090E0F901E80FF91FB08248
S1132D60019684319105C1F72C5E3F4F201731073E
S1132D7089F720C02FEF3FEFA901B80180910735F3
S1132D80909108350E946A088823A1F0F801808197
S1132D90D8011296218130E0B901F4E18F9F600DD2
S1132DA0711D112480E090E0A901480F591F44319E
S1132DB0510548F080910735909108350E940C091F
S1132DC08111D8CF10C04D914423A1F3FB01E80F2A
S1132DD0F91FEE24E394F12CEC0EFD1EEE0DFF1D05
S1132DE040830196E1CFCE0101966C01E12CF12CD8
S1132DF0A60160E070E0C7010E9428169FEFE91A5F
S1132E00F90AE4E1CE0ED11CF4E0EF16F10481F7E7
S1132E1081CF42E050E060E070E08091093590910C
S1132E200A350C9457032F923F924F925F926F9200
S1132E307F928F929F92AF92BF92CF92DF92EF9246
S1132E40FF920F931F93CF93DF93CDB7DEB76B97AA
S1132E50CDBFDEBF29A92B8F4DA95EA9FE01F79630
S1132E608CED94E3DC011D92CD01B4E3803F9B071C
S1132E70C9F788EC94E3DC011D92CD01B4E38C3DE9
S1132E809B07C9F700E010E06DE2262E70E3372EB1
S1132E90DA018C91882309F464C2853209F04EC2A8
S1132EA09A012E5F3F4F298F3A8FDA0111968C9148
S1132EB0853609F479C158F4833691F0E8F5853202
S1132EC009F04CC2D801A853BB4C8C9345C283373C
S1132ED081F0883709F453C0863609F03FC276C0C2
S1132EE0D801A853BB4C80818C930F5F1F4F32963F
S1132EF035C2AF014E5F5F4F0190F081E02D980124
S1132F0028533B4C7F01DF010D900020E9F7CD01F0
S1132F1001978E1B9F0BB7016E1B7F0B68177907F8
S1132F2038F4D7018D917D01D9018D939D01EBCFAB
S1132F30080F191FFA0112C27F01B2E0EB0EF11C57
S1132F404AE06CED74E3808191810E94731CC80196
S1132F5088539B4CACEDB4E3ECEDF4E3019000201A
S1132F60E9F73197EC5DF4439D012C5D34432E1752
S1132F703F0740F52D91FC012193CF01EDCF7F0157
S1132F8022E0E20EF11C40E16CED74E3808191815A
S1132F900E94731CC80188539B4CACEDB4E3ECED68
S1132FA0F4E301900020E9F73197EC5DF4439D01CF
S1132FB02C5D34432E173F0728F42D91FC012193F7
S1132FC0CF01EDCF0E0F1F1FF701C8C19F012C5F6A
S1132FD03F4F2F8B388F80809180A280B38020E078
S1132FE030E0A901C501B4010E948A1A811105C00B
S1132FF03092DC341092DD34BEC020E030E0A90110
S1133000C501B4010E948A1A87FF0BC02092DC34E8
S1133010B7FAB094B7F8B0943DED432E34E3532E91
S113302004C02CED422E24E3522E612C712C20E09E
S113303030E040E85FE3C501B4010E94E91B87FD6D
S11330400EC020E030E040E251E4C501B4010E942A
S11330508F1A4B015C013FEF631A730AE8CF2DEC22
S11330603CEC4CEC5DE3C501B4010E948A1A87FF75
S11330700EC020E030E040E251E4C501B4010E94FA
S1133080EE1B4B015C0181E0681A7108E8CF620114
S113309073011E141F041CF520E030E040E251E4EB
S11330A0C501B4010E94EE1B4B015C010E94011B8F
S11330B020E3260FD6012D936D01072E000C880BFB
S11330C0990B0E94391B9B01AC01C501B4010E94FC
S11330D01D1A4B015C01B1E0EB1AF108DACF630170
S11330E077FE02C0C12CD12CF201EC0DFD1D6C1831
S11330F07D08C114D10419F43082F20131962EE214
S113310021936C0C7D1CDF01C614D70421F47F01CC
S1133110CE1ADF0A09C084E0C816D1045CF53192E6
S11331203FEFC31AD30AEFCFD701C6018E0D9F1DFF
S1133130049704F520E030E040E251E4C501B40115
S11331400E94EE1B4B015C010E94011B20E3260F31
S1133150D7012D937D01072E000C880B990B0E943B
S1133160391B9B01AC01C501B4010E941D1A4B011E
S11331705C01DACF1C92C80188539B4CACEDB4E3DC
S1133180ECEDF4E301900020E9F73197EC5DF443B2
S11331909D012C5D34432E173F0708F0CAC02D91C2
S11331A0FC012193CF01ECCF9F012C5F3F4F2F8B6C
S11331B0388F80809180A280B38020E030E0A90124
S11331C0C501B4010E948A1A811105C03092DC3411
S11331D01092DD3496C020E030E0A901C501B401AD
S11331E00E948A1A87FF0BC02092DC34B7FAB0948D
S11331F0B7F8B0949DEDE92E94E3F92E04C08CED5C
S1133200E82E84E3F82EC12CD12C20E030E040E8F5
S11332105FE3C501B4010E94E91B87FD0EC020E0F5
S113322030E040E251E4C501B4010E948F1A4B0121
S11332305C013FEFC31AD30AE8CF2DEC3CEC4CEC15
S11332405DE3C501B4010E948A1AD60111976D018C
S113325020E030E040E251E487FF07C0C501B4013B
S11332600E94EE1B4B015C01E8CFC501B4010E9432
S1133270EE1B4B015C010E94011B20E3260FF701AA
S11332802083072E000C880B990B0E94391B9B018D
S1133290AC01C501B4010E941D1AEEE2D7011196DA
S11332A0EC935701F2E0AF0EB11C470126E0820E09
S11332B0911C20E030E040E251E40E94EE1B2B011F
S11332C03C010E94011B20E3260FD5012D935D01D3
S11332D0072E000C880B990B0E94391B9B01AC0133
S11332E0C301B2010E941D1AA814B90411F725E6FE
S11332F0F7012683B701695F7F4F4AE0C6010E9448
S1133300731CC80188539B4CACEDB4E3ECEDF4E3BF
S113331001900020E9F73197EC5DF4439D012C5DA9
S113332034432E173F0728F42D91FC012193CF013C
S1133330EDCF0E0F1F1FEF89F88D10C09801285391
S11333403B4CD9018A3011F08C9301C01C929A0134
S11333502F5F3F4F298F3A8F0F5F1F4F498D5A8D33
S113336097CD8BA99CA9800F911F449734F004E159
S113337010E0EBA9FCA90E1B1F0BDE011396CE0176
S11333804796FD011192E817F907E1F7FB8DF983E0
S11333902BA92A83E8ECF4E3CF01885C94438017DB
S11333A091071CF481918D93F7CF00E02FEF3FEF4D
S11333B0A901BE016F5F7F4F809107359091083559
S11333C00E948C076B96CDBFDEBFDF91CF911F911A
S11333D00F91FF90EF90DF90CF90BF90AF909F90B0
S11333E08F907F906F905F904F903F902F900895B3
S11333F08091780085FF05C080E28093780081E0A9
S113340008958091780080FF04C081E08093780063
S113341012C08091780084FF05C080E18093780019
S113342083E008958091780081FF05C082E0809355
S1133430780084E0089582E008955058BB27AA27B5
S11334400E94351A0C94AF1B0E94A11B38F00E94F5
S1133450A81B20F039F49F3F19F426F40C949E1B0A
S11334600EF4E095E7FB0C94981BE92F0E94C01B17
S113347058F3BA17620773078407950720F079F4A5
S1133480A6F50C94E21B0EF4E0950B2EBA2FA02D9A
S11334900B01B90190010C01CA01A0011124FF27FD
S11334A0591B99F0593F50F4503E68F11A16F040F8
S11334B0A22F232F342F4427585FF3CF46953795F7
S11334C02795A795F0405395C9F77EF41F16BA0BBC
S11334D0620B730B840BBAF09150A1F0FF0FBB1F6A
S11334E0661F771F881FC2F70EC0BA0F621F731FB3
S11334F0841F48F4879577956795B795F7959E3F10
S113350008F0B0CF9395880F08F09927EE0F9795A0
S1133510879508950E94741B08F481E008950E9421
S1133520A31A0C94AF1B0E94A81B58F00E94A11B65
S113353040F029F45F3F29F00C94981B51110C942E
S1133540E31B0C949E1B0E94C01B68F39923B1F3E8
S1133550552391F3951B550BBB27AA2762177307B5
S1133560840738F09F5F5F4F220F331F441FAA1F49
S1133570A9F335D00E2E3AF0E0E832D09150504005
S1133580E695001CCAF72BD0FE2F29D0660F771FB3
S1133590881FBB1F261737074807AB07B0E809F099
S11335A0BB0B802DBF01FF2793585F4F3AF09E3F1E
S11335B0510578F00C94981B0C94E31B5F3FE4F3E3
S11335C0983ED4F3869577956795B795F7959F5F61
S11335D0C9F7880F911D9695879597F90895E1E0AD
S11335E0660F771F881FBB1F621773078407BA070C
S11335F020F0621B730B840BBA0BEE1F88F7E09567
S113360008950E94081B6894B1110C94E31B08955B
S11336100E94C81B88F09F5798F0B92F9927B7517B
S1133620B0F0E1F0660F771F881F991F1AF0BA9562
S1133630C9F714C0B13091F00E94E21BB1E00895C3
S11336400C94E21B672F782F8827B85F39F0B93FB5
S1133650CCF3869577956795B395D9F73EF4909515
S11336608095709561957F4F8F4F9F4F0895E89493
S113367009C097FB3EF490958095709561957F4FB6
S11336808F4F9F4F9923A9F0F92F96E9BB27939564
S1133690F695879577956795B795F111F8CFFAF474
S11336A0BB0F11F460FF1BC06F5F7F4F8F4F9F4FA5
S11336B016C0882311F096E911C0772321F09EE803
S11336C0872F762F05C0662371F096E8862F70E069
S11336D060E02AF09A95660F771F881FDAF7880F43
S11336E09695879597F90895990F0008550FAA0B99
S11336F0E0E8FEEF16161706E807F907C0F0121601
S11337001306E407F50798F0621B730B840B950B03
S113371039F40A2661F0232B242B252B21F4089558
S11337200A2609F4A140A6958FEF811D811D0895F5
S113373097F99F6780E870E060E008959FEF80EC60
S1133740089500240A941616170618060906089503
S113375000240A9412161306140605060895092E69
S11337600394000C11F4882352F0BB0F40F4BF2BD8
S113377011F460FF04C06F5F7F4F8F4F9F4F089518
S113378057FD9058440F551F59F05F3F71F047950E
S1133790880F97FB991F61F09F3F79F087950895F3
S11337A0121613061406551FF2CF4695F1DF08C012
S11337B0161617061806991FF1CF8695710561052F
S11337C008940895E894BB2766277727CB0197F9D7
S11337D008950E94741B08F48FEF08950E94011C41
S11337E00C94AF1B0E94A11B38F00E94A81B20F070
S11337F0952311F00C94981B0C949E1B11240C948B
S1133800E31B0E94C01B70F3959FC1F3950F50E01A
S1133810551F629FF001729FBB27F00DB11D639F7E
S1133820AA27F00DB11DAA1F649F6627B00DA11D24
S1133830661F829F2227B00DA11D621F739FB00DCA
S1133840A11D621F839FA00D611D221F749F33273A
S1133850A00D611D231F849F600D211D822F762FD3
S11338606A2F11249F5750409AF0F1F088234AF0B0
S1133870EE0FFF1FBB1F661F771F881F915050401C
S1133880A9F79E3F510580F00C94981B0C94E31B00
S11338905F3FE4F3983ED4F3869577956795B795A3
S11338A0F795E7959F5FC1F7FE2B880F911D9695BD
S11338B0879597F90895EE0FFF1F881F8BBF079018
S11338C0F691E02D1994FB01DC0102C001900D92E8
S11338D041505040D8F70895DC0101C06D93415028
S11338E05040E0F70895BB274A3031F4992322F47D
S11338F0BDE2909581959F4F0C947F1CBB27FB01E3
S11339005527AA27880F991FAA1FA41710F0A41BD4
S113391083955051B9F7A05DAA3308F0A95DA1932E
S1133920009779F7B111B1931192CB010C94981CC3
S1133930DC01FC01672F71917723E1F7329704C012
S11339407C916D9370836291AE17BF07C8F308959D
S1073950F894FFCF15
S113395449444C4500546D722053766300467265A5
S11339646552544F532031302E302E310045445586
S1133974426F61726420312E30005461736B4D6167
S11339846E6167656D656E74004C6F61643A2025E1
S1133994660062744D616E61676572006C656431C2
S11339A4006C656432006C656433006C65643400D7
S11339B46C656435006C656436006C656437006C52
S11339C4656438006C6F61646B696C6C0064697362
S11339D4706D6E67005265736574526561736F6EC2
S11339E43A202564006469737055706461746500D9
S9030000FC
